{
  "_format": "hh-sol-artifact-1",
  "contractName": "ZeoDocumentVerifier",
  "sourceName": "contracts/ZeoDocumentVerifier.sol",
  "abi": [
    {
      "inputs": [],
      "stateMutability": "nonpayable",
      "type": "constructor"
    },
    {
      "anonymous": false,
      "inputs": [
        {
          "indexed": true,
          "internalType": "bytes32",
          "name": "docHash",
          "type": "bytes32"
        },
        {
          "indexed": true,
          "internalType": "address",
          "name": "verifier",
          "type": "address"
        }
      ],
      "name": "DocumentVerified",
      "type": "event"
    },
    {
      "inputs": [
        {
          "internalType": "bytes32",
          "name": "docHash",
          "type": "bytes32"
        }
      ],
      "name": "isVerified",
      "outputs": [
        {
          "internalType": "bool",
          "name": "",
          "type": "bool"
        }
      ],
      "stateMutability": "view",
      "type": "function"
    },
    {
      "inputs": [],
      "name": "owner",
      "outputs": [
        {
          "internalType": "address",
          "name": "",
          "type": "address"
        }
      ],
      "stateMutability": "view",
      "type": "function"
    },
    {
      "inputs": [
        {
          "internalType": "bytes32",
          "name": "",
          "type": "bytes32"
        }
      ],
      "name": "verifiedDocs",
      "outputs": [
        {
          "internalType": "bool",
          "name": "",
          "type": "bool"
        }
      ],
      "stateMutability": "view",
      "type": "function"
    },
    {
      "inputs": [
        {
          "internalType": "bytes32",
          "name": "docHash",
          "type": "bytes32"
        }
      ],
      "name": "verifyDocument",
      "outputs": [],
      "stateMutability": "nonpayable",
      "type": "function"
    }
  ],
  "bytecode": "0x608060405234801561001057600080fd5b50336000806101000a81548173ffffffffffffffffffffffffffffffffffffffff021916908373ffffffffffffffffffffffffffffffffffffffff1602179055506103d9806100606000396000f3fe608060405234801561001057600080fd5b506004361061004c5760003560e01c806321fc5783146100515780638da5cb5b14610081578063c181b2731461009f578063fe35089f146100cf575b600080fd5b61006b60048036038101906100669190610267565b6100eb565b60405161007891906102af565b60405180910390f35b61008961010b565b604051610096919061030b565b60405180910390f35b6100b960048036038101906100b49190610267565b61012f565b6040516100c691906102af565b60405180910390f35b6100e960048036038101906100e49190610267565b610159565b005b60016020528060005260406000206000915054906101000a900460ff1681565b60008054906101000a900473ffffffffffffffffffffffffffffffffffffffff1681565b60006001600083815260200190815260200160002060009054906101000a900460ff169050919050565b6001600082815260200190815260200160002060009054906101000a900460ff16156101ba576040517f08c379a00000000000000000000000000000000000000000000000000000000081526004016101b190610383565b60405180910390fd5b600180600083815260200190815260200160002060006101000a81548160ff0219169083151502179055503373ffffffffffffffffffffffffffffffffffffffff16817f536e3e5b353ccc73d28014bd5d2ff03ced4b84fa024148b4949000af72f0a25460405160405180910390a350565b600080fd5b6000819050919050565b61024481610231565b811461024f57600080fd5b50565b6000813590506102618161023b565b92915050565b60006020828403121561027d5761027c61022c565b5b600061028b84828501610252565b91505092915050565b60008115159050919050565b6102a981610294565b82525050565b60006020820190506102c460008301846102a0565b92915050565b600073ffffffffffffffffffffffffffffffffffffffff82169050919050565b60006102f5826102ca565b9050919050565b610305816102ea565b82525050565b600060208201905061032060008301846102fc565b92915050565b600082825260208201905092915050565b7f416c726561647920766572696669656400000000000000000000000000000000600082015250565b600061036d601083610326565b915061037882610337565b602082019050919050565b6000602082019050818103600083015261039c81610360565b905091905056fea2646970667358221220d8454952d1a09450e6cfc6cfa4229665e0cd317422f60dac16b2ab8f2aa0cc7864736f6c63430008140033",
  "linkReferences": {},
  "deployedLinkReferences": {}
}